:0200000480007A
:100000006F00000F6F00C06B6F00800D6F00400D20
:100010006F00000D6F00C00C6F00800C6F00400C73
:100020006F00000C6F00C00B6F00800B6F00400B67
:100030006F00000B6F00C00A6F00800A6F00400A5B
:100040006F00000A6F00C0096F0080096F0040094F
:100050006F0000096F00C0086F0080086F00400843
:100060006F0000086F00C0076F0080076F00400737
:100070006F0000076F00C0066F0080066F008017DA
:1000800097A101009381810117010300130181F7FA
:1000900017050000130505F713651500731055309B
:1000A000138501F91386014A3306A6409305000023
:1000B000EFC0907A17D50000130585F4EFA0403704
:1000C000EFC0106A1305000093050000130600003E
:0C00D000EF5010616FA000376780000047
:1000E000178501001305D5F3EFB0D0506FF05FFF17
:1000F000130101FC232011002322A1002324B100BD
:100100002326C1002328D100232AE100232CF1005B
:10011000232E0101232011032322510223246102F3
:10012000232671022328C103232AD103232CE103B0
:10013000232EF103F322203413032000638862028C
:100140001303B00063886200130330006388620009
:100150006F00C002EF00C03D6F0040031785010033
:100160001305C5E7EFB010496F0040021785010085
:100170001305C5E1EFB010486F004001178501007D
:100180001305E5E7EFB010476F004002F32210348B
:1001900003830200130530003373A3006314A3002C
:1001A00093822200938222007390123483200100F4
:1001B00003254100832581000326C1008326010118
:1001C00003274101832781010328C10183280102FC
:1001D00083224102032381028323C102032E0103F0
:1001E000832E4103032F8103832FC10313010104D5
:1001F0007300203073002030000000000000000079
:100200003305A04023A2A1FA1305F0FF6780000088
:1002100017880100130808E393085005B70700107A
:100220001307180023A017018346180063800606F1
:1002300023A0D70083421700638A020423A057003B
:10024000034327006304030423A0670083433700AC
:10025000638E030223A0770003454700630805026D
:1002600023A0A700834557006382050223A0B7009F
:1002700003466700630C06001308770023A0C7003D
:1002800083487700E39E08F86780000067800000DD
:100290009307800523A2F1FA1305F0FF67800000A1
:1002A0009307800523A2F1FA1305F0FF6780000091
:1002B0009307800523A2F1FA1305F0FF6780000081
:1002C0009307800523A2F1FA1305F0FF6780000071
:1002D0009307800523A2F1FA1305F0FF6780000061
:1002E0001305F0FF678000001300000013000000FA
:1002F0009307C00023A2F1FA1305F0FF6780000006
:10030000B707048023A0A700730050106F000000FF
:100310009307800523A2F1FA1305F0FF6780000020
:100320009307B00023A2F1FA1305F0FF67800000E5
:10033000B727000023A2F500130500006780000026
:100340009307800523A2F1FA1305F0FF67800000F0
:100350009307800523A2F1FA1305F0FF67800000E0
:10036000930780FA23A2F1FA1305000067800000CA
:100370001305100067800000130000001300000048
:10038000930780FA23A2F1FA1305F0FF67800000BB
:100390001305F5FF133515006780000013000000FA
:1003A0009307600123A2F1FA1305F0FF67800000B4
:1003B0009307F00123A2F1FA1305F0FF6780000014
:1003C0001305000067800000130000001300000008
:1003D0009307800523A2F1FA1305F0FF6780000060
:1003E0001305F0FF678000001300000013000000F9
:1003F0009307800523A2F1FA1305F0FF6780000040
:1004000013050000678000001300000013000000C7
:10041000B727000023A2F500130500006780000045
:100420001305F0FF678000001300000013000000B8
:100430001305F0FF678000001300000013000000A8
:100440009307200023A2F1FA1305F0FF6780000054
:100450009307800523A2F1FA1305F0FF67800000DF
:100460009307A00023A2F1FA1305F0FF67800000B4
:10047000130101FF23261100232481002322910070
:10048000938405001304060083A701F9638807021B
:100490001306040093850400179501001305054019
:1004A000EF001001130504008320C1000324810024
:1004B000832441001301010167800000130630000E
:1004C000B7C5010093850520179501001305053D6B
:1004D000EF00006F9302100023A851F86FF05FFB4C
:1004E00023A0A1F81305000067800000130000009E
:1004F00093070500138701F803250700B302F500F1
:100500002320570063F8220017030300130383AF6F
:1005100063E862009303C00023A271FA1305F0FFA1
:1005200067800000130000001300000013000000AB
:10053000130101FF232611009307100863C4170558
:100540001303F00263561303938308FD130710058A
:100550006364771493962300178801001308C8B0CA
:10056000338E0601832E0E00338F0E0167000F00BD
:100570009302100163925812930880FA23A211FB90
:100580006F0080089300F04063C810119302F03FA1
:1005900063D61203938808C01303F000636E130F31
:1005A0009393280017870100130787C03385E30062
:1005B00003260500B306E60067800600930FC00A15
:1005C0006384F80563C01F0393009009638E1802CB
:1005D0009302900A6392580C930880FA23A211FBAD
:1005E0006F0080029307600D6398F80A23A0A1F8BA
:1005F0006F008001370404802320A4007300501092
:100600006F000000EFF0DFE68320C100130101015D
:10061000678000001305600123A2A1FA6FF0DFFEDE
:10062000930F800523A2F1FB6FF01FFE130FF00163
:1006300023A2E1FB6FF05FFD930E200023A2D1FB0C
:100640006FF09FFC9307800523A2F1FA6FF0DFFBA8
:100650003728000023A205016FF01FFB372600009A
:1006600023A2C5006FF05FFA9305800523A2B1FABB
:100670006FF09FF99305800523A2B1FA6FF0DFF8C0
:10068000130E800523A2C1FB6FF01FF893008005B5
:1006900023A211FA6FF05FF7EFF09FB76FF0DFF66C
:1006A000000000000000000000000000000000004A
:1006B0001305000067800000130000001300000015
:1006C0001305000067800000130000001300000005
:1006D00013050000678000001300000013000000F5
:1006E00013050000678000001300000013000000E5
:1006F00013050000678000001300000013000000D5
:1007000013050000678000001300000013000000C4
:1007100013050000678000001300000013000000B4
:1007200013050000678000001300000013000000A4
:100730001305000067800000130000001300000094
:100740001305000067800000130000001300000084
:100750001305000067800000130000001300000074
:100760001305000067800000130000001300000064
:100770001305000067800000130000001300000054
:100780001305000067800000130000001300000044
:100790001305000067800000130000001300000034
:1007A0001305000067800000130000001300000024
:1007B0001305000067800000130000001300000014
:1007C0001305000067800000130000001300000004
:1007D00013050000678000001300000013000000F4
:1007E00013050000678000001300000013000000E4
:1007F00013050000678000001300000013000000D4
:1008000013050000678000001300000013000000C3
:1008100013050000678000001300000013000000B3
:1008200013050000678000001300000013000000A3
:100830001305000067800000130000001300000093
:100840001305000067800000130000001300000083
:100850001305000067800000130000001300000073
:100860001305000067800000130000001300000063
:100870001305000067800000130000001300000053
:100880001305000067800000130000001300000043
:100890001305000067800000130000001300000033
:1008A0001305000067800000000000000000000049
:1008B0008327C5006388072A032705016304072AE5
:1008C0008325050083C6450103469500B3E2C600B3
:1008D000A304550013F30602630003288323450194
:1008E0003308774063027728B388770003CE080087
:1008F0002380C501832E4501138F1E00232AE501A5
:10090000930F100063FA0F25832505008327C50088
:100910003387E701834607002380D500032645017E
:1009200093021600232A5500130320006376032345
:10093000832305008328C500338E5800834E0E00A4
:100940002380D301032F4501930F1F00232AF501B4
:100950009305300063F20521832605008327C50037
:100960003387F701034607002380C6008322450131
:1009700013831200232A65009303400063FE031DC6
:1009800083280500032EC500B30E6E0003CF0E00B2
:100990002380E801832F450193851F00232AB5009A
:1009A0009306500063FA061B032605008327C50043
:1009B0003387B70083420700230056000323450115
:1009C00093031300232A75009308600063F6081947
:1009D000032E0500832EC500338F7E00834F0F004A
:1009E0002300FE018325450193861500232AD500A7
:1009F0001306700063720617832205008327C50063
:100A00003387D70003430700238062008323450117
:100A100093881300232A1501130E8000637E0E13A2
:100A2000832E0500032FC500B30F1F0183C50F00E0
:100A30002380BE008326450193821600232A550099
:100A400013069000637A0611032305008327C5006F
:100A50003387570083430700230073008328450131
:100A6000138E1800232AC501930EA00063F60E0F03
:100A7000032F0500832FC500B385CF0183C6050072
:100A80002300DF008322450113831200232A65001F
:100A90001306B0006372060D832305008327C5008B
:100AA000338767008348070023801301032E450125
:100AB000930E1E00232AD501130FC000637E0F0979
:100AC000832F05008325C500B386D50183C20600A8
:100AD00023805F000323450193031300232A75003D
:100AE0001306D000637A0607832805008327C50014
:100AF00033877700034E07002380C801832E45010A
:100B0000138F1E00232AE501930FE00063F60F0503
:100B1000832505008326C500B382E60103C30200D6
:100B2000238065008323450113861300232AC50013
:100B30009308F00063F20803032805008327C5002B
:100B40003387C700034E07002300C801832E4501E9
:100B5000138F1E00232AE501832F450183250501FC
:100B60006384BF006780000023280500032505007B
:100B70008346450093F2D60F23025500678000009C
:100B8000F32740F1639607023727000C83260700FE
:100B900097920100938282D033055540133315009C
:100BA00093031000B395630033E6D5002320C700FC
:100BB0006780000013000000130000001300000015
:100BC000130101FF23261100232481002322910019
:100BD0002320210113040500938405001309060056
:100BE000832705002382070083200500238400005B
:100BF00083220500130770FC2384E2000323050011
:100C0000230803002322B500138605009306000085
:100C100037D5121393050000EF908038B70380009A
:100C2000637C75029355750003260400930600F853
:100C30002306D600032804001355F5009378F50F1A
:100C400023021801032E040093FEF50F2300DE019A
:100C5000032F040023060F00832F040023862F0197
:100C600023229400230424012328040023260400C3
:100C7000232A0400232E0400232C04002322040230
:100C8000A3040400970400009384C4C223209402A8
:100C90008320C10003248100832441000329010033
:100CA0001301010167800000130000001300000021
:100CB000130101FF23260100638405246302062437
:100CC00013880500B385C500930710036F00C02289
:100CD00093F20202639E020A034746019372F70FE2
:100CE000232601008326C100E3E4D7FE0323C100CD
:100CF00093031300232671008328C100E3EA17FD44
:100D0000032EC100930E1E002326D101032FC10024
:100D1000E3E0E7FD832FC10013871F002326E100D6
:100D20008326C100E3E6D7FA0323C100930313002F
:100D3000232671008328C100E3EC17F9032EC100BC
:100D4000930E1E002326D101032FC100E3E2E7F931
:100D5000832FC10013871F002326E1008326C100D3
:100D6000E3E8D7F60323C1009303130023267100A1
:100D70008328C100E3EE17F5032EC100930E1E0079
:100D80002326D101032FC100E3F2E7F76FF05FF4F0
:100D900023260100832FC10063E2F70B0327C10064
:100DA000930617002326D1000323C10063E86708D8
:100DB0008323C1009388130023261101032EC10051
:100DC00063EEC707832EC100138F1E002326E101A7
:100DD0008322C10063E45706832FC10013871F00DD
:100DE0002326E1008326C10063EAD7040323C10060
:100DF00093031300232671008328C10063E01705C5
:100E0000032EC100930E1E002326D101032FC10023
:100E100063E6E7038322C100938F12002326F101CA
:100E20000327C10063ECE7008326C100138316008B
:100E3000232661008323C100E3F277F6834808008C
:100E400023001601232601000326C10063E2C70A1E
:100E5000032EC100930E1E002326D101032FC100D3
:100E600063E8E7098322C100938F12002326F10172
:100E70000327C10063EEE7068326C1001383160033
:100E8000232661008323C10063E477068328C10021
:100E9000138618002326C100032EC10063EAC7058C
:100EA000832EC100138F1E002326E1018322C1007F
:100EB00063E05704832FC10013871F002326E1003E
:100EC0008326C10063E6D7020323C1009303130006
:100ED000232671008328C10063EC17010326C1009B
:100EE000130E16002326C101832EC100E3F2D7F7AB
:100EF000130818006306B800032605006FF0DFDD55
:100F000013010101678000001300000013000000BE
:100F1000638C050E03C605006308060E130101FF6E
:100F2000938615006F0040012380C700938616004A
:100F300003C6F6FF6306060C8327050003C74701B7
:100F40009372F70FA30751000343F1009373030259
:100F5000E39C03FC83C5470113F8F50FA3070101C8
:100F60008348F10013FE0802E3100EFC83CE470114
:100F700013FFFE0FA307E101834FF10013F70F02E8
:100F8000E31407FA83C2470113F3F20FA3076100CA
:100F90008343F10093F50302E39805F803C8470182
:100FA0009378F80FA3071101034EF100937E0E0210
:100FB000E39C0EF603CF4701937FFF0FA307F101D8
:100FC0000347F10093720702E39002F603C347015F
:100FD0009373F30FA30771008345F10013F8050223
:100FE000E31408F483C8470113FEF80FA307C101F7
:100FF000834EF10013FF0E02E3020FF46FF0DFF2F5
:1010000013010101678000006780000013000000E9
:101010006304060463820504130101FF2326110003
:101020002326B5002328C500232A050097070000C2
:10103000938747882320F502032705008340470054
:1010400093E2200023025700EFF09FB38320C100FA
:101050001301010167800000678000001300000099
:101060008327050083C2470113F7F20F83469500DB
:1010700033E3D200A30465008323050163980300D2
:1010800013556700137515006780000013050000F5
:101090006780000013000000130000001300000030
:1010A00093070500130506006380051A6308061AF6
:1010B00003A707008342470183C6970033E3D200AA
:1010C000A384670093F312006384031813070000DE
:1010D000137836006304080A130610006306C80676
:1010E00093082000630A180303AE0700834E0E0026
:1010F000338FE5002300DF011307170083AF0700DC
:1011000083C24F0183C6970033E3D200A3846700F4
:1011100093F312006382031403A807000346080038
:10112000B388E5002380C8001307170003AE07004B
:10113000834E4E0103CF9700B3EFEE01A384F70176
:1011400093F21E00638A021083A6070003C3060001
:10115000B383E500238063001307170003A807008B
:101160008348480103C6970033EEC800A384C70133
:1011700093FE180063820E0E6304E50E03AF0700B2
:10118000834F0F00B382E5002380F20113031700A1
:101190001307030083A6070083C3460103C8970013
:1011A000B3E80301A384170113F613006306060ACC
:1011B00003AE0700834E0E00338765002300D7017E
:1011C0001307130003AF0700834F4F0183C297003B
:1011D000B3E65F00A384D70093F31F00638E03067A
:1011E00003A80700834808003386E50023001601A2
:1011F0001307230003AE0700834E4E0103CF970071
:10120000B3EFEE01A384F70193F21E00638602049C
:1012100083A6070083C306003387E5002300770019
:101220001307330003A307000348430183C8970053
:1012300033661801A384C700137E1800630E0E00E6
:10124000E31EE5F2678000001305000067800000E0
:101250001305000067800000130507006780000089
:10126000678000001300000013000000130000005E
:10127000130101FF23261100232481002322910062
:101280009304050013840500EFF09F8FB70701005A
:101290009382F7FF630C540003A7040083404700C8
:1012A0001373F400B3E36000230277008320C100CE
:1012B00003248100832441001301010167800000A1
:1012C000638605009307000C63F4C7006780000085
:1012D000130101FF23261100232EB500032705006B
:1012E0008340870093F2F00333E3C2009373F30F5C
:1012F000230477008325050003C645009366160086
:101300002382D500EFF0DF878320C10013010101A4
:1013100067800000130000001300000013000000AD
:10132000638C0502130101FF232611002320B5025F
:1013300023260500232805000327050083474700CF
:1013400093E0270023021700EFF09F838320C10062
:101350001301010167800000678000001300000096
:1013600063880502130101FF232611002322B50221
:10137000032705008347470093E0870023021700F7
:10138000EFF01F808320C10013010101678000007E
:10139000678000001300000013000000130000002D
:1013A00093070500638A05161305060063080616F1
:1013B00003A807000347480183C69700B362D7001C
:1013C000A384570013730702130500006308031476
:1013D000130506009303000163F4C3001305000125
:1013E00083C8050023001801130E10006378CE1285
:1013F00083AE070003CF15002380EE01930F20007A
:1014000063FECF1003A8070003C725002300E800F0
:101410009306300063F4C61083A2070003C33500AF
:10142000238062009303400063FAC30E83A8070081
:1014300003CE45002380C801930E500063F0CE0E0A
:1014400003AF070083CF55002300FF01130860009E
:101450006376C80C03A7070083C665002300D70086
:101460009302700063FCC20A03A3070083C37500E4
:10147000230073009308800063F2C80A03AE0700DC
:1014800083CE85002300DE01130F90006378CF0820
:1014900083AF070003C8950023800F011307A00046
:1014A000637EC70683A2070083C6A5002380D200FF
:1014B0001303B0006374C30683A3070083C8B50099
:1014C00023801301130EC000637ACE0483AE07009D
:1014D00003CFC5002380EE01930FD00063F0CF044B
:1014E00003A8070003C7D5002300E8009302E0002B
:1014F00063F6C20203A3070083C6E5002300D300FE
:101500009303F00063FCC30003A6070083C5F50046
:101510002300B6006780000013050000678000000C
:101520008327050083C247010347950033E3E200A8
:10153000A30405001375E309678000001300000091
:101540008327050003C587016780000013000000A2
:101550008327050003C74701834295003363570083
:10156000A3046500137507066780000013000000E0
:10157000032705008347C70093E2070423065700AB
:10158000678000001300000013000000130000003B
:10159000032705008347C70093F2F70B2306570084
:1015A0006780000000000000000000000000000054
:1015B00033E6C500630E0626130101FF23268100D2
:1015C000232491002322210123203101138E8182C3
:1015D00093953500B38EC501032705020323450209
:1015E00083290500B3C9E90003294500334969008F
:1015F000832485010324C5013347970033438300C7
:10160000832885000328C50083270501B3C217017D
:101610008323450133CF030183260E00B3C6560052
:10162000832F4E00B3C7EF0113C6F8FF9345F8FFB1
:10163000B373D600B3F2F500B3C33301B3C22201D2
:1016400013CFF4FF934FF4FFB375EF0033F66F0041
:10165000B3C5D5003346F600B34F7700334F530080
:1016600093C6F6FF93C7F7FFB3F69600B3F787006C
:10167000B3C37600B3C25700B3C61301B3C70201A8
:101680009348F7FF1348F3FFB3F938013379280182
:10169000B3C4990033448900B3C8B4003348C400CC
:1016A00093C5F5FF1346F6FF9313D300935237010A
:1016B000B3E953001319D70093543301B36299006F
:1016C000931343001354C701B3E4830093134700FB
:1016D0001359C30133E42301B3C99900B3C2820093
:1016E00033C7E9002320E50033C3620023226500ED
:1016F00093D4D6019393370033E9740013D4D70100
:10170000939936003367340193D27600139397018F
:10171000B3E4620093D3770013949601B3E9830096
:10172000B342370133499900B3C6D2002324D50010
:10173000B347F9002326F5001317F60113D315005C
:10174000B36467009393F50113541600B3E9830063
:101750009312A60113D96500B3E722019396A50160
:101760001357660033E3E600B3C4F400B3C3690063
:10177000B3C5B4002328B50033C6C300232AC5006F
:101780001314680193D9A800B36234011399680156
:101790009357A8003363F9001317F80093D6180184
:1017A000B364D7009393F8009355180133E6B30060
:1017B00033C49200B349C300B3481401232C15016C
:1017C00033C80901232E050193129F0113D97F000D
:1017D00033E3220193979F0113577F00B3E4E7009F
:1017E00093D69F0093137F0133E4760013569F0036
:1017F00093957F01B369B600B348330133C88400C1
:10180000B3CFF8012320F503334FE8012322E5038A
:10181000130E8E00E312DEDD0324C1008324810059
:1018200003294100832901001301010167800000A1
:101830006780000013000000130000001300000088
:10184000B3E7C500638A0714130101FF2326810053
:1018500023249100138E818213030000930E000055
:10186000930700009308F0FF03280502032F85016A
:10187000832285000327050033440701832F0501D8
:10188000B3C35F0083260E00B3C476000B27544811
:101890008BAF92F03348E8018BA3E4810B2F0F410B
:1018A0000B288828B342E80033C4EF00334F7F0091
:1018B00093C6F3FF8B94574C0B975770B34F970019
:1018C000B3C35F00232075008B82774C8B847770C5
:1018D00033C754002322E5008B9F87F48B93879CAA
:1018E000B3C2F30133C48200232485008B8487F4C0
:1018F0000B87879CB34F97002326F5010B94D804E0
:101900008B93D80CB3C2830033C4D2002328850044
:101910008B8688048B84880C33C7D400934FF7FFE1
:10192000232AF5018B93E7298B92E74533C4720094
:10193000334FE401232CE5018B86E7298B84E745AF
:1019400033C7D400232EE5008B9F071D8B9307A57B
:10195000B3C2F30133C80201232005030B84071D22
:101960000B8F07A5B3468F002322D502130E8E00DE
:101970009304130033B7640013830400B30ED7013C
:10198000E394B4EEE392CEEE0324C10083248100FD
:101990001301010167800000678000001300000050
:1019A000130101F8232E1106232C8106232A910608
:1019B0002328210723263107232441072322510707
:1019C00023206107232E7105232C8105232A9105ED
:1019D0002328A1052326B1059309050013890500D5
:1019E0001384060023260101938A0800937BF703E2
:1019F00093F6F7031307F70393546700138AF7036B
:101A0000135B6A0063880B0493973400938087FF0D
:101A1000B30215009305000433837541130503FEDB
:101A20006342055483A30200B39EA300130F00007A
:101A3000930FF00333877F4193071000B390E700C3
:101A400013D3F041B3651F0023A0B20033E56E004D
:101A500023A2A2006388060493123B00938382FFB3
:101A6000B3087400130C0004B30CDC4013880CFEA4
:101A7000634E085003AD0800B3100D0113030000BE
:101A80009305F0033385D54093061000B392A6006A
:101A900093D3F241336C530023A08801B3EC700060
:101AA00023A298019308000037184080130D68C0E6
:101AB000232C1101232EA101832D0900032D4900A0
:101AC0002320B1032322A103832C8900032CC90006
:101AD0002324910323268103032E0600832E460030
:101AE0002328C103232AD103032F86000326C6001F
:101AF000232CE103232EC1029305C000130600002E
:101B000013058101EFF0DFAA832F010333C7BF0163
:101B10008327410333C3A7012328E102232A61025B
:101B20008325810333C595018326C103B3C2860192
:101B3000232CA102232E51029303F00363FA431DC9
:101B4000130AFBFF937D3A00832004008328810160
:101B500033C81800032D4400832CC10133CCAC01E1
:101B6000232C0101232E8101930560001306000040
:101B700013058101EFF0DFA3130A100013048400A2
:101B800063786A1963800D0C130E1000638ECD0705
:101B9000930E2000638EDD03032F040003268101D2
:101BA000B34FE601032744008327C10133C3E70095
:101BB000232CF101232E6100930560001306000021
:101BC00013058101EFF0DF9E130A1A00130484004D
:101BD0008325040003258101B342B5008326440018
:101BE0008323C101B3CDD300232C5100232EB10197
:101BF000930560001306000013058101EFF05F9B61
:101C0000130A1A001304840083200400832881012E
:101C100033C81800032D4400832CC10133CCAC0120
:101C2000232C0101232E810193056000130600007F
:101C300013058101EFF0DF97130A1A0013048400E3
:101C400063786A0D032E0400832E810133CFCE0109
:101C500003264400832FC10133C7CF00232CE101A9
:101C6000232EE10093056000130600001305810197
:101C7000EFF01F948327840003238101B345F30011
:101C80000325C4008322C101B3C6A200232CB100E6
:101C9000232ED10093056000130600001305810177
:101CA000EFF01F9183230401832D8101B3C87D00D0
:101CB00003284401032DC101B34C0D01232C110154
:101CC000232E910193056000130600001305810186
:101CD000EFF01F8E032C8401032E8101B34E8E0181
:101CE000032FC4010326C101B34FE601232CD10108
:101CF000232EF101930560001306000013058101F6
:101D0000EFF01F8B130A4A0013040402E36C6AF31A
:101D1000032B810393401B00232C11029387F4FFB4
:101D2000130710006384E41E138A09000324C10012
:101D3000938D0700130B000013F337006300030EAD
:101D4000630AE308930520006304B30403A50900B4
:101D500083228101B3C3A20083A649008328C10165
:101D600033C8D800232C7100232E010123207400D6
:101D7000232204019305600013060000130581016E
:101D8000EFF01F83130B1B00138A890013048400D8
:101D9000032D0A00832C810133CCAC01032E4A00B1
:101DA000832EC10133CFCE01232C8101232EE101EB
:101DB000232084012322E401930560001306000020
:101DC00013058101EFF0CFFE130B1B00130A8A00ED
:101DD0001304840003260A00832F8101B3C0CF00BF
:101DE00003274A008327C10133C3E700232C1100D6
:101DF000232E610023201400232264009305600039
:101E00001306000013058101EFF08FFA130B1B007E
:101E1000130A8A0013048400630ABB0F83250A0097
:101E200003258101B342B50083234A008326C10103
:101E3000B3C87600232C5100232E11012320540017
:101E4000232214019305600013060000130581018D
:101E5000EFF00FF603288A00032D8101B34C0D012A
:101E6000032CCA00032EC101B34E8E01232C910115
:101E7000232ED101232494012326D401930560004D
:101E80001306000013058101EFF08FF2032F0A0102
:101E900003268101B34FE60103274A018327C101CD
:101EA00033C3E700232CF101232E61002328F40122
:101EB000232A6400930560001306000013058101C6
:101EC000EFF00FEF83258A0103258101B342B500AE
:101ED0008323CA018326C101B3C87600232C510095
:101EE000232E1101232C5400232E1401930560008E
:101EF0001306000013058101EFF08FEB130B4B006D
:101F0000130A0A0213040402E31ABBF19394340087
:101F1000938D84FFB389B90183A00900032B81014C
:101F200033CA600103A449000328C101334D0401F1
:101F3000232C4101232EA10163820B0A032CC10033
:101F4000330EBC01930E0004338F7E4113060FFE47
:101F500063420606B35FCD002320FE0123220E005C
:101F60006F00C00883A8020013DC18001308F001FA
:101F7000B30C6840335D9C0183AD4200339E6D001D
:101F8000B36ECD01339F68006FF09FAA83AD080048
:101F900013DE1D00930EF001338F9E41B35FEE01FF
:101FA00003A74800B3179701B3E0FF0033939D01E7
:101FB0006FF01FAD13171D009307F0013383E74146
:101FC000B31567003355EA01B362B50023205E0004
:101FD000B353ED0123227E006F004001832BC1002B
:101FE000B38CBB0123A04C0123A2AC0183240900C4
:101FF000832D490083260102B3C89600832941023C
:10200000B3C0B9012320110323221102032B89003D
:10201000032A810233446A010328C900032DC10247
:10202000B34B0D0123248102232671039305C000C5
:102030001306000013058101EFF08FD7832C0103F5
:1020400033CC9C00032E4103B34EBE0123A08A0172
:1020500023A2DA01032F890003268103B34FE6018F
:102060000329C9000327C103B347270123A4FA01A9
:1020700023A6FA008320C107032481078324410794
:10208000032901078329C106032A8106832A410601
:10209000032B0106832BC105032C8105832C4105ED
:1020A000032D0105832DC104130101086780000081
:1020B000130101F8232E1106232C8106232A9106F1
:1020C00023282107232631072324410723225107F0
:1020D00023206107232E7105232C8105232A9105D6
:1020E0002328A1052326B1052326A1001389050075
:1020F0001384060093090800938A0800937BF70372
:1021000093F6F7031307F70393546700138AF70353
:10211000135B6A006388060493173B00938087FF74
:10212000B3021400930500043383D540130503FE66
:102130006342056283A30200B39EA300130F000055
:10214000930FF0033387DF4093061000B397E60048
:1021500093D0F741B365FF0023A0B20033E31E0024
:1021600023A262009302000037154080930365C0EC
:10217000232C5100232E7100832D0900032D4900CB
:102180002320B1032322A103832C8900032CC9003F
:102190002324910323268103832806000328460075
:1021A00023281103232A0103032E86000326C600D9
:1021B000232CC103232EC1029305C0001306000087
:1021C00013058101EFF0CFBE832E010333CFBE0193
:1021D000832F410333C7AF012328E103232AE10200
:1021E00083268103B3C596018327C10333C38701C7
:1021F000232CB102232E61029302F00363FA421DE5
:10220000130AFBFF937D3A0083200400032581011C
:10221000B3431500032D4400832CC10133CCAC0122
:10222000232C7100232E810193056000130600000A
:1022300013058101EFF0CFB7130A100013048400D7
:1022400063786A1963800D0C93081000638E1D0774
:1022500013082000638E0D03032E04000326810162
:10226000B34EC601032F4400832FC10133C7EF01D2
:10227000232CD101232EE1009305600013060000FA
:1022800013058101EFF0CFB2130A1A001304840082
:10229000832604008325810133C3D50083224400B3
:1022A0008327C101B3CD5700232C6100232EB10138
:1022B000930560001306000013058101EFF04FAF96
:1022C000130A1A00130484008320040003258101EB
:1022D000B3431500032D4400832CC10133CCAC0162
:1022E000232C7100232E810193056000130600004A
:1022F00013058101EFF0CFAB130A1A001304840019
:1023000063786A0D8328040003288101334E180185
:1023100003264400832EC10133CFCE00232CC101FC
:10232000232EE101930560001306000013058101CF
:10233000EFF00FA8832F840003278101B345F70135
:102340008326C4000323C101B342D300232CB10070
:10235000232E510093056000130600001305810130
:10236000EFF00FA583270401832D810133C5FD0004
:1023700083234401032DC101B34C7D00232CA10014
:10238000232E9101930560001306000013058101BF
:10239000EFF00FA2032C84018328810133C8880148
:1023A000032EC4010326C101B34EC601232C010133
:1023B000232ED1019305600013060000130581014F
:1023C000EFF00F9F130A4A0013040402E36C6AF350
:1023D000032B810393401B00232C1102138AF4FF6B
:1023E000130F10006380E42313840900032BC10042
:1023F000930D0A00130C0000937F3A00638C0F0EBC
:102400006382EF0B130720006388EF0483A50900A4
:102410008326810133C3B60083A249008327C1010B
:1024200033C5570023206B002322AB0083A3090090
:1024300003AD4900232C7100232EA10193056000F8
:102440001306000013058101EFF08F96130C1C009A
:1024500013848900130B8B00832C040083288101D3
:1024600033C89801032E44000326C101B34EC601B0
:1024700023200B012322DB0183200400032A4400D4
:10248000232C1100232E4101930560001306000048
:1024900013058101EFF0CF91130C1C00130484008D
:1024A000130B8B00032F0400832F810133C7EF012F
:1024B000832544008326C10133C3B6002320EB00EB
:1024C00023226B008322040083274400232C510025
:1024D000232EF1009305600013060000130581010F
:1024E000EFF00F8D130C1C0013048400130B8B00F2
:1024F000630ABC11032504008323810133CDA300AB
:10250000832C44008328C10133C898012320AB01E8
:1025100023220B01032E040003264400232CC101B7
:10252000232EC100930560001306000013058101EE
:10253000EFF00F88832E8400032A8101334FDA01E4
:10254000832FC4000327C101B345F7012324EB0106
:102550002326BB00832684000323C400232CD10040
:10256000232E61009305600013060000130581010E
:10257000EFF00F84832204018327810133C55700C4
:1025800083234401032DC101B34C7D002328AB00FC
:10259000232A9B018328040103284401232C1101D1
:1025A000232E01019305600013060000130581012D
:1025B000EFF00F80032E840103268101B34EC60184
:1025C000032AC401032FC101B34F4F01232CDB01A8
:1025D000232EFB01032784018325C401232CE10062
:1025E000232EB1009305600013060000130581013E
:1025F000EFE01FFC130C4C0013040402130B0B023E
:10260000E31ABCEF638C0B1A83238101032DC101F4
:10261000930C000433887C4193983400138E88FF18
:10262000B38EC901130608FE634A0614B354CD00E5
:102630009309000083AD0E00B3C09D0003AC4E00B3
:1026400033443C01032BC100B306CB0123A0160089
:1026500023A286001303F003B30B7341930210000F
:10266000B397720113D5F741930C08FE63C80C129F
:10267000339F900113080000B3EF07013367E501B2
:10268000B3C77F003345A701232CF100232EA100FF
:10269000032D09008324490083230102B3C5A3014C
:1026A00083294102B3CD99002320B1022322B10333
:1026B00083208900032C810233441C00032BC900B2
:1026C0008326C10233C366012324810223266102CB
:1026D0009305C0001306000013058101EFE05FEDD4
:1026E000832B0103B3C2AB018327410333C597009A
:1026F00023A05A0023A2AA00832C890083288103E7
:1027000033CE98010329C900832EC10333C62E019D
:1027100023A4CA0123A6CA008320C107032481077A
:1027200083244107032901078329C106032A81065F
:10273000832A4106032B0106832BC105032C810547
:10274000832C4105032D0105832DC10413010108CC
:102750006780000083A8020013DC18001308F00152
:10276000B30C6840335D9C0183AD4200339E6D0025
:10277000B36ECD01339F68006FF09F9C131A1D004C
:10278000130FF001B30F0F413317FA01B3D5030153
:10279000B364B700B3590D016FF0DFE993D81000AF
:1027A000130EF001B30E0E4133D6D801331A0401D3
:1027B000336F4601339800016FF01FEC939434009F
:1027C000938B84FFB3897901832DC100B3807D0190
:1027D00003AC090003248101334B840183A6490023
:1027E0000323C101B342D30023A0600123A2500000
:1027F00083A7090003A549006FF01FE9130000003B
:10280000130101F8232E1106232C8106232A910699
:102810002328210723263107232441072322510798
:1028200023206107232E7105232C8105232A91057E
:102830002328A1052326B105930905001389050066
:1028400013840600930A070023240101138B080058
:10285000137AF70713F7F7079384FA0793D47400F2
:102860009386F7072326D10093DB760063060A06DA
:1028700093F00A046394004A939C440093838CFF72
:10288000330E75003308950113050004B308454164
:10289000938508FE63C00546032D0E00331CBD0062
:1028A000930C00001303F003B3034341130510001E
:1028B000B318750013DDF841B3E51C012328B8FEF9
:1028C000B36DAC01232AB8FF13080000930E00007B
:1028D00023200E012322DE016306070693F7070477
:1028E00063980756139C4B00930F8CFFB300F401C1
:1028F000330F840193070004338EE74093060EFEE6
:1029000063C4065283A20000B39DD20013080000E6
:10291000930EF003338CEE4013071000B31F8701B2
:1029200093D7FF41336EF8012328CFFFB3E6FD00B4
:10293000232ADFFE130F00009302000023A0E00112
:1029400023A2500093000000B71C808013838CC02A
:10295000232C1100232E6100832D0900032D490033
:102960002320B1032322A103832C8900032CC90057
:102970002324910323268103832306008328460012
:1029800023287102232A1103032586000326C6008B
:10299000232CA102232EC1029305C00013060000C0
:1029A00013058101EFE0DFC08325010333C8B501C2
:1029B000832E410333C7AE0123280103232AE102FA
:1029C000832F810333CE9F018327C103B3C68701C1
:1029D000232CC103232ED102130FF0078322C10041
:1029E000637A5F169380FBFF93FD100003230400BE
:1029F000032D8101B34C6D00032C44008323C101DE
:102A0000B3C88301232C9101232E110103258400D7
:102A100003260102B345A6000328C400832E410209
:102A200033C70E012320B1022322E1029305800067
:102A30001306000013058101EFE09FB7130C10008F
:102A40001304040163787C1163800D06832F040056
:102A5000032E8101334FFE01832644008327C101E9
:102A6000B3C2D700232CE101232E51008320840020
:102A7000832D010233C31D00032DC400832C4102AA
:102A8000B3C3AC01232061022322710293058000AD
:102A90001306000013058101EFE09FB1130C1C0029
:102AA0001304040163787C0B83280400032581014F
:102AB00033461501832544000328C101B34EB800F5
:102AC000232CC100232ED101832F84000327010270
:102AD000334EF701032FC40083264102B3C7E6013A
:102AE0002320C1032322F102930580001306000076
:102AF00013058101EFE0DFAB83220401832D810107
:102B000033C35D00032D4401832CC101B3C3AC0169
:102B1000232C6100232E71008328840103250102E8
:102B2000334615018325C40103284102B34EB80082
:102B30002320C1022322D103930580001306000045
:102B400013058101EFE0DFA6130C2C00130404022F
:102B5000E36C7CF5832B810393C01B00232C1102B3
:102B6000938FF4FF130C10006386840F938B09007E
:102B700003248100938D0F00130C000013F71F0036
:102B80006318075A83A50B0003288101B34EB800D0
:102B900083A04B00832FC10133CE1F00232CD10112
:102BA000232EC10103AF8B0003270102B342E701CB
:102BB00083A6CB008327410233C3D70023205102D1
:102BC000232261022320D4012322C40123245400A0
:102BD000232664009305800013060000130581017D
:102BE000EFE01F9D03AD0B01832C8101B3C3AC014A
:102BF00083A84B010325C10133461501232C710025
:102C0000232EC10083A58B0103280102B34EB80017
:102C100083AFCB01032E4102334FFE012320D103AA
:102C20002322E10323287400232AC400232CD40187
:102C3000232EE40193058000130600001305810193
:102C4000EFE01F97130C2C00938B0B02130404026C
:102C5000E31ABCF393944400938D04FF338CB901C1
:102C6000832B0C0003248101B3C08B0003274C008D
:102C70008322C101334D5700232C1100232EA101C3
:102C800093878D00B389F90003A30900832601020D
:102C9000B34CD30083A3490083284102B3C5130179
:102CA000232091032322B10263040A3A13F60A0493
:102CB000631A062C832E8100B382FE0013070004E2
:102CC000B3074741938907FE63CA092833533D017F
:102CD00023A0620023A20200032581003306B50170
:102CE000930D0000130800002320B60123220601E3
:102CF0006F00C037832D0E0093DE1D00130FF0010F
:102D0000B30F1F41B3D6FE0183204E00B3921001D2
:102D100033EC5600B39C1D016FF0DFB89392440072
:102D2000938302FF3303750013050008330C4541FC
:102D300093858300B38CB900130E0AFC13080AFABA
:102D40006348080683A84C00B3D20801930300002F
:102D500013050CFE6342050883250300B39FA500FD
:102D600093060000B3E0D20023201300B3E2F30186
:102D70002322530013030CFE6344030803AC0C002E
:102D8000B31D6C00930E0000130FF007B30F4F41FB
:102D900093061000B390F60193D2F04133E31E0086
:102DA00023A06C0033EC5D0023A28C016FF0DFB236
:102DB00003AD4C00931D1D00930EF001338FCE41E7
:102DC000B39FED0183A60C00B3D0C601B3E21F0090
:102DD000B353CD016FF0DFF7032E030013581E002D
:102DE0009308F001338D8841B35DA801832E430021
:102DF000339F8E01B3EFED01B3168E016FF09FF696
:102E000083A30C0013D513009305F001338E854185
:102E10003358C50183A84C00339D8801B36DA801C8
:102E2000B39E83016FF05FF683AC000013D31C00E8
:102E30009303F001B388C3413355130103AD400040
:102E4000B315CD01B36DB5003398CC016FF05FAC15
:102E5000139E4B00130F0EFFB30FE40193060008FF
:102E6000B380E64093028F00330C5400930C07FCB0
:102E7000130307FA6348030683234C00B3D76300A8
:102E8000130F0000138E00FE63420E0883A60F008E
:102E9000B395C601930D000033E8B70123A00F01DD
:102EA000B36EBF0023A2DF01938F00FE63C40F083F
:102EB00083200C00B393F001930800001305F00782
:102EC000330DE54013071000B315A70193DDF5415D
:102ED00033E8B80023200C01B3EEB3012322DC0158
:102EE0006FF05FA683284C0013951800130DF001B6
:102EF000B3059D41B31DB50003280C00B35E9801D6
:102F0000B3E7DD0133DF98016FF0DFF783A20F0035
:102F100093DC12001303F001B3031340B3D87C0019
:102F200003A54F00331D1500B3E5A801B39D1200A2
:102F30006FF09FF683270C0013DF1700130EF001CC
:102F4000B3061E40B352DF00832C4C0033931C00A9
:102F5000B3E36200B39817006FF05FF693161D009D
:102F60009303F001B388F340339A1601B3DCF00009
:102F7000B3EA4C0123A05201B355FD0023A2B200D5
:102F80006FF09FD513080008B30E4841832F8100CE
:102F9000338EFF00130F0AFC93040AFA63C604047D
:102FA000B39790009309000013830EFE634E030451
:102FB000B3DA65009305000033E559012320AE0024
:102FC00033E6B7002322CE0003288100B30DB801F9
:102FD000938F0EFE63CA0F04B350FD0123A01D00A2
:102FE00023A20D006F00800813DC1000930BF0018A
:102FF0003384EB4133578C00B312ED01B3675700B4
:10300000B399E0016FF05FFA939615009303F00116
:10301000B388D341339A1601B3DCDC01B36A9A0159
:10302000B3D5D5016FF05FF9131E1D00130FF0012A
:10303000B304DF41331C9E00B3DBD00133E48B01CA
:1030400023A08D00335DDD0123A2AD016F000002DE
:10305000032A8100B30ABA0123A01A0023A2AA01FD
:103060003305FA00232095012322B50083240900AB
:10307000032C4900832F8102B3C09F00032EC1029D
:10308000334F8E01232411022326E103832B890071
:1030900003240103334D7401832EC90083224103AD
:1030A00033C7D2012328A103232AE1029305C000DC
:1030B0001306000013058101EFE08FCF8327010382
:1030C000B3C9970003234103B346830123203B0187
:1030D0002322DB00832389008328810333CA7800FD
:1030E0000329C900832CC103B3CA2C0123244B013B
:1030F00023265B018320C107032481078324410722
:10310000032901078329C106032A8106832A410670
:10311000032B0106832BC105032C8105832C41055C
:10312000032D0105832DC1041301010867800000F0
:1031300003AE0900032F8101B342CF0183A74900E9
:103140008326C10133C3F600232C5100232E6100D6
:1031500003AD8900832C0102B3C3AC0183A8C9006D
:103160000325410233461501232071022322C102A7
:103170002320540023226400232474002326C40047
:10318000930580001306000013058101EFE04FC294
:10319000130C1C00938B090113040401E314BC9F5E
:1031A0006FF05FAB1300000013000000130000007D
:1031B000130101F8232E1106232C8106232A9106E0
:1031C00023282107232631072324410723225107DF
:1031D00023206107232E7105232C8105232A9105C5
:1031E0002328A1052326B1052324A1001389050066
:1031F00013840600930A070023260101938908001F
:10320000137BF70713F7F7079384FA0793D4740037
:10321000938BF70713DA7B006306070693F707041F
:1032200063980746131C4A0013038CFFB3836600A0
:10323000B380860193070004B382E740938602FEC1
:1032400063C4064203A50300B31ED500130F00009C
:10325000930FF003338CEF401307100033138701F3
:103260009357F341B3626F0023A850FEB3E6FE000C
:1032700023AAD0FE930000001305000023A0130032
:1032800023A2A30093030000B7158080138885C094
:10329000232C7100232E0101832D0900032D4900E9
:1032A0002320B1032322A103832C8900032CC9000E
:1032B000232491032326810383280600032E46003E
:1032C00023281103232AC103832E86000326C60068
:1032D000232CD103232EC1029305C0001306000046
:1032E00013058101EFE0CFAC032F0103B34FBF0102
:1032F000032741033343A7012328F103232A610253
:1033000083278103B3C297018326C10333C5860196
:10331000232C5102232EA1029303F00763FA7317A3
:10332000930BFAFF93FD1B0083200400832581018A
:1033300033C81500032D4400832CC10133CCAC01EC
:10334000232C0101232E810183288400032E0102F6
:10335000B34E1E010326C400032F4102B34FCF001A
:103360002320D1032322F1039305800013060000DC
:1033700013058101EFE0CFA3930B100013040401A8
:1033800063F84B1163800D060323040003278101BA
:10339000B3426700832644008327C10133C5D700A9
:1033A000232C5100232EA10083238400832D0102AE
:1033B000B3C07D008325C40003284102334DB8000B
:1033C000232011022322A10393058000130600008D
:1033D00013058101EFE0CF9D938B1B0013040401C3
:1033E00063F84B0B832C0400032C8101B3489C0130
:1033F000032E4400832EC10133C6CE01232C1101BC
:10340000232EC100032F8400832F010233C3EF0159
:103410000327C40083224102B3C6E20023206102D5
:103420002322D102930580001306000013058101B9
:10343000EFE00F988327040103258101B343F500D2
:10344000832D44018325C10133C8B501232C7100AC
:10345000232E0101032D8401832C010233CCAC0106
:103460008328C401032E4102B34E1E012320810391
:103470002322D10393058000130600001305810168
:10348000EFE00F93938B2B0013040402E3EC4BF556
:10349000032A810393401A00232C1102938BF4FF1B
:1034A00013041000638684100324C100032A8100E2
:1034B000938D0B00130C000013F61B0063140666BB
:1034C00083200400832B810133C61B00032F44009B
:1034D000832FC10133C3EF012320CA0023226A00D6
:1034E0008322840003270102334557008326C4004A
:1034F00083274102B3C3D7002324AA0023267A00DE
:103500008325040003284400232CB100232E01014D
:10351000032D8400832CC4002320A10323229103C4
:10352000930580001306000013058101EFE04F882A
:1035300083280401032E8101B34E1E01832B440115
:103540000326C101334F76012328DA01232AEA0139
:10355000832F840103230102B342F3010327C40133
:1035600003254102B346E500232C5A00232EDA003E
:103570008323040183274401232C7100232EF100AF
:10358000832584010328C4012320B10223220103DF
:10359000930580001306000013058101EFE04F81C1
:1035A000130C2C0013040402130A0A02E31ABCF1E0
:1035B00063060B4213F80A0463160822032E8101E6
:1035C000832BC10193070004338C6741139D440092
:1035D00093088DFF832F8100B38A1F01832DC100C3
:1035E00033861D0113030CFE634A031A33D86B00A4
:1035F00093060000032F0600B3400F01032446008A
:10360000B34ED40023A01A0023A2DA01832C810038
:10361000B384AC01930500009307000023A8B4FE17
:1036200023AAF4FE130D0CFE634A0D1803AC0A0026
:10363000B313AC01130700001305F003330B65410E
:10364000130A100033186A019356F841336F0701CB
:10365000B3E0D300334ECF01232CC101B3CB7001B3
:10366000232E71016F00C03F83A5030013D81500FE
:103670009308F001B38C5840335D980103AE4300CA
:10368000B31D5E00B36EBD01339F55006FF05FBC8C
:1036900093104A00938200FF33835600930600087C
:1036A000B383E64013858200330CA400930807FC23
:1036B000930507FA63C8050603284C00B357B80002
:1036C00093000000938203FE63C202088326030076
:1036D000B39D5600930E000033EFD7012320E30182
:1036E000B3EFB0012322F301138303FE6344030805
:1036F00083230C0033986300930C0000130DF00734
:10370000330EED4013071000B31DC70193DEFD41DA
:1037100033EFBC012320EC01B36FD8012322FC015D
:103720006FF05FB6832C4C00139D1C00130EF0014C
:10373000B30D1E41B31EBD01032F0C00B35F1F016B
:10374000B3E7FE01B3D01C016FF0DFF703250300E0
:10375000935815009305F00133887540B3DC0801D8
:10376000032D4300331E7D00B3EDCC01B31E750065
:103770006FF09FF683270C0093D017009302F0019F
:10378000B386724033D5D00083284C00B3957800BF
:103790003368B500B39C77006FF05FF693921B001F
:1037A0001305F00133078541B393E200335A8E01CC
:1037B00033E84301B3D68B016FF0DFE383A80A003F
:1037C00093DF1800930DF00133868D4133D3CF0082
:1037D00083AA4A00B3928A01B363530033978801E6
:1037E0006FF09FE5832A8101832DC101130C00082E
:1037F00033046C4193944400138A04FF83208100B6
:10380000338D4001832CC100B3884C01130E04FE9C
:1038100063460E1033D3CD019302000003A70800C6
:103820003345670083A34800B3C653002320AD008F
:103830002322DD00130C0BFC8324010283254102AB
:1038400093078A0013080BFA634A080EB39B0A0118
:10385000930E0000130F04FE63420F1033D5E501F1
:103860009303000033E8AE0033EA7B008326C100F7
:10387000B380F60083AC0000B3C80C0103AE400077
:10388000B34B4E0123201D0123227D01032D810016
:10389000B307FD0083AE070003AF4700930F04FE9C
:1038A00063CE0F0CB393F801130A000013080CFE4B
:1038B0006346080EB35B0F01130C0000336D7A01F1
:1038C000B3EF8301B34A5D01232C5101B3CDBF0196
:1038D000232EB1011306F007330B664113031000CA
:1038E000B312630113D5F241130704FE6348070CBA
:1038F000B390EE0013040000B3EE8200B36C150029
:1039000023A0D70123A29701B3C4D401232091029D
:10391000B3C595012322B1026F008014939E1D0050
:10392000930BF001338F8B40B39FEE0133D68A00A7
:1039300033E3CF00B3D28D006FF05FEE13DA1A00DD
:103940009300F001B38C8041B3589A01339E8D01EE
:10395000B3EBC801B39E8A016FF0DFEF939F1500B0
:103960001306F00133038640B3926F0033D784000F
:1039700033E5E200B3D385006FF0DFEE13D6180015
:103980001303F001B30283403357560033958B0085
:10399000B363A700339A88006FF05FF193161F009E
:1039A0009300F001B38C8041B398960133DE8E0111
:1039B000B3EBC801335C8F016FF05FF093D31E004F
:1039C000130AF00133088A40B3D60301331F8F0076
:1039D000B3E0E60133948E006FF01FF2939444003D
:1039E000938A04FF032BC100B30D5B01032C8100FC
:1039F00033045C0103AA0D008320810133CD400113
:103A000083AC4D008328C10133CE98012320A4014B
:103A10002322C401938E8A00B30BDB01330FDC0138
:103A200083AF0B00032601023343F60183A24B0050
:103A3000032741023345570023206F002322AF00A4
:103A400083A30D0083A64D00232C7100232ED100EB
:103A500083A50B0083A74B002320B1022322F10290
:103A6000832C090003244900832E8102B3C49E01E4
:103A70008325C102B3C78500232491022326F102C6
:103A8000032D8900032C0103B348AC01832FC90027
:103A9000832D410333C6FD0123281103232AC102CC
:103AA0009305C0001306000013058101EFD05FB03D
:103AB00003230103B34A930183224103B3C382006A
:103AC00023A0590123A2790003258900032781033C
:103AD000334BA7000329C900032AC10333482A0135
:103AE00023A4690123A609018320C10703248107B8
:103AF00083244107032901078329C106032A81067C
:103B0000832A4106032B0106832BC105032C810563
:103B1000832C4105032D0105832DC10413010108E8
:103B200067800000032F0400832F810133C3EF015E
:103B3000032744008322C101B3C6E20023206A00A8
:103B40002322DA008327840003250102B343F50012
:103B50008325C40003284102334DB80023247A0092
:103B60002326AA01832C040083284400232C9101DE
:103B7000232E1101032E8400832EC4002320C103B1
:103B80002322D10393058000130600001305810151
:103B9000EFD01FA2130C1C0013040401130A0A0126
:103BA000E3107C936FF0DFA013000000130000000F
:103BB000130101F8232E1106232C8106232A9106D6
:103BC00023282107232631072324410723225107D5
:103BD00023206107232E7105232C8105232A9105BB
:103BE0002328A1052326B1059309050013890500A3
:103BF0001384060023260101938A0800937BF703B0
:103C000093F6F7031307F70393546700138AF70338
:103C1000135B6A0063880B0493973400938087FFDB
:103C2000B30215009305000433837541130503FEA9
:103C30006342055483A30200B39EA300130F000048
:103C4000930FF00333877F4193071000B390E70091
:103C500013D3F041B3651F0023A0B20033E56E001B
:103C600023A2A2006388060493123B00938382FF81
:103C7000B3087400130C0004B30CDC4013880CFE72
:103C8000634E085003AD0800B3100D01130300008C
:103C90009305F0033385D54093061000B392A60038
:103CA00093D3F241336C530023A08801B3EC70002E
:103CB00023A298019308000037184080130D68C0B4
:103CC000232C1101232EA101832D0900032D49006E
:103CD0002320B1032322A103832C8900032CC900D4
:103CE0002324910323268103032E0600832E4600FE
:103CF0002328C103232AD103032F86000326C600ED
:103D0000232CE103232EC1029305C00013060000FB
:103D100013058101EFD0DFB2832F010333C7BF0149
:103D20008327410333C3A7012328E102232A610229
:103D30008325810333C595018326C103B3C2860160
:103D4000232CA102232E51029303F00363FA431D97
:103D5000130AFBFF937D3A0083200400832881012E
:103D600033C81800032D4400832CC10133CCAC01AF
:103D7000232C0101232E810193056000130600000E
:103D800013058101EFD0DFAB130A10001304840088
:103D900063786A1963800D0C130E1000638ECD07D3
:103DA000930E2000638EDD03032F040003268101A0
:103DB000B34FE601032744008327C10133C3E70063
:103DC000232CF101232E61009305600013060000EF
:103DD00013058101EFD0DFA6130A1A001304840033
:103DE0008325040003258101B342B50083264400E6
:103DF0008323C101B3CDD300232C5100232EB10165
:103E0000930560001306000013058101EFD05FA346
:103E1000130A1A00130484008320040083288101FC
:103E200033C81800032D4400832CC10133CCAC01EE
:103E3000232C0101232E810193056000130600004D
:103E400013058101EFD0DF9F130A1A0013048400C9
:103E500063786A0D032E0400832E810133CFCE01D7
:103E600003264400832FC10133C7CF00232CE10177
:103E7000232EE10093056000130600001305810165
:103E8000EFD01F9C8327840003238101B345F300F7
:103E90000325C4008322C101B3C6A200232CB100B4
:103EA000232ED10093056000130600001305810145
:103EB000EFD01F9983230401832D8101B3C87D00B6
:103EC00003284401032DC101B34C0D01232C110122
:103ED000232E910193056000130600001305810154
:103EE000EFD01F96032C8401032E8101B34E8E0167
:103EF000032FC4010326C101B34FE601232CD101D6
:103F0000232EF101930560001306000013058101C3
:103F1000EFD01F93130A4A0013040402E36C6AF300
:103F2000032B810393401B00232C11029387F4FF82
:103F3000130710006384E41E138A09000324C100E0
:103F4000938D0700130B000013F337006300030E7B
:103F5000630AE308930520006304B30403A5090082
:103F600083228101B3C3A20083A649008328C10133
:103F700033C8D800232C7100232E010123207400A4
:103F8000232204019305600013060000130581013C
:103F9000EFD01F8B130B1B00138A890013048400BE
:103FA000032D0A00832C810133CCAC01032E4A007F
:103FB000832EC10133CFCE01232C8101232EE101B9
:103FC000232084012322E4019305600013060000EE
:103FD00013058101EFD0DF86130B1B00130A8A0043
:103FE0001304840003260A00832F8101B3C0CF008D
:103FF00003274A008327C10133C3E700232C1100A4
:10400000232E610023201400232264009305600006
:104010001306000013058101EFD09F82130B1B00D4
:10402000130A8A0013048400630ABB0F83250A0065
:1040300003258101B342B50083234A008326C101D1
:10404000B3C87600232C5100232E110123205400E5
:10405000232214019305600013060000130581015B
:10406000EFD00FFE03288A00032D8101B34C0D0110
:10407000032CCA00032EC101B34E8E01232C9101E3
:10408000232ED101232494012326D401930560001B
:104090001306000013058101EFD08FFA032F0A01E8
:1040A00003268101B34FE60103274A018327C1019B
:1040B00033C3E700232CF101232E61002328F401F0
:1040C000232A640093056000130600001305810194
:1040D000EFD00FF783258A0103258101B342B50094
:1040E0008323CA018326C101B3C87600232C510063
:1040F000232E1101232C5400232E1401930560005C
:104100001306000013058101EFD08FF3130B4B0052
:10411000130A0A0213040402E31ABBF19394340055
:10412000938D84FFB389B90183A00900032B81011A
:1041300033CA600103A449000328C101334D0401BF
:10414000232C4101232EA10163820B0A032CC10001
:10415000330EBC01930E0004338F7E4113060FFE15
:1041600063420606B35FCD002320FE0123220E002A
:104170006F00C00883A8020013DC18001308F001C8
:10418000B30C6840335D9C0183AD4200339E6D00EB
:10419000B36ECD01339F68006FF09FAA83AD080016
:1041A00013DE1D00930EF001338F9E41B35FEE01CD
:1041B00003A74800B3179701B3E0FF0033939D01B5
:1041C0006FF01FAD13171D009307F0013383E74114
:1041D000B31567003355EA01B362B50023205E00D2
:1041E000B353ED0123227E006F004001832BC100F9
:1041F000B38CBB0123A04C0123A2AC018324090092
:10420000832D490083260102B3C896008329410209
:10421000B3C0B9012320110323221102032B89000B
:10422000032A810233446A010328C900032DC10215
:10423000B34B0D0123248102232671039305C00093
:104240001306000013058101EFD08FDF832C0103DB
:1042500033CC9C00032E4103B34EBE0123A08A0140
:1042600023A2DA01032F890003268103B34FE6015D
:104270000329C9000327C103B347270123A4FA0177
:1042800023A6FA008320C107032481078324410762
:10429000032901078329C106032A8106832A4106CF
:1042A000032B0106832BC105032C8105832C4105BB
:1042B000032D0105832DC10413010108678000004F
:1042C000130101F8232E1106232C8106232A9106BF
:1042D00023282107232631072324410723225107BE
:1042E00023206107232E7105232C8105232A9105A4
:1042F0002328A1052326B1052326A1001389050043
:104300001384060093090800938A0800937BF7033F
:1043100093F6F7031307F70393546700138AF70321
:10432000135B6A006388060493173B00938087FF42
:10433000B3021400930500043383D540130503FE34
:104340006342056283A30200B39EA300130F000023
:10435000930FF0033387DF4093061000B397E60016
:1043600093D0F741B365FF0023A0B20033E31E00F2
:1043700023A262009302000037154080930365C0BA
:10438000232C5100232E7100832D0900032D490099
:104390002320B1032322A103832C8900032CC9000D
:1043A0002324910323268103832806000328460043
:1043B00023281103232A0103032E86000326C600A7
:1043C000232CC103232EC1029305C0001306000055
:1043D00013058101EFD0CFC6832E010333CFBE0179
:1043E000832F410333C7AF012328E103232AE102CE
:1043F00083268103B3C596018327C10333C3870195
:10440000232CB102232E61029302F00363FA421DB2
:10441000130AFBFF937D3A008320040003258101EA
:10442000B3431500032D4400832CC10133CCAC01F0
:10443000232C7100232E81019305600013060000D8
:1044400013058101EFD0CFBF130A100013048400BD
:1044500063786A1963800D0C93081000638E1D0742
:1044600013082000638E0D03032E04000326810130
:10447000B34EC601032F4400832FC10133C7EF01A0
:10448000232CD101232EE1009305600013060000C8
:1044900013058101EFD0CFBA130A1A001304840068
:1044A000832604008325810133C3D5008322440081
:1044B0008327C101B3CD5700232C6100232EB10106
:1044C000930560001306000013058101EFD04FB77C
:1044D000130A1A00130484008320040003258101B9
:1044E000B3431500032D4400832CC10133CCAC0130
:1044F000232C7100232E8101930560001306000018
:1045000013058101EFD0CFB3130A1A0013048400FE
:1045100063786A0D8328040003288101334E180153
:1045200003264400832EC10133CFCE00232CC101CA
:10453000232EE1019305600013060000130581019D
:10454000EFD00FB0832F840003278101B345F7011B
:104550008326C4000323C101B342D300232CB1003E
:10456000232E5100930560001306000013058101FE
:10457000EFD00FAD83270401832D810133C5FD00EA
:1045800083234401032DC101B34C7D00232CA100E2
:10459000232E91019305600013060000130581018D
:1045A000EFD00FAA032C84018328810133C888012E
:1045B000032EC4010326C101B34EC601232C010101
:1045C000232ED1019305600013060000130581011D
:1045D000EFD00FA7130A4A0013040402E36C6AF336
:1045E000032B810393401B00232C1102138AF4FF39
:1045F000130F10006380E42313840900032BC10010
:10460000930D0A00130C0000937F3A00638C0F0E89
:104610006382EF0B130720006388EF0483A5090072
:104620008326810133C3B60083A249008327C101D9
:1046300033C5570023206B002322AB0083A309005E
:1046400003AD4900232C7100232EA10193056000C6
:104650001306000013058101EFD08F9E130C1C0080
:1046600013848900130B8B00832C040083288101A1
:1046700033C89801032E44000326C101B34EC6017E
:1046800023200B012322DB0183200400032A4400A2
:10469000232C1100232E4101930560001306000016
:1046A00013058101EFD0CF99130C1C001304840073
:1046B000130B8B00032F0400832F810133C7EF01FD
:1046C000832544008326C10133C3B6002320EB00B9
:1046D00023226B008322040083274400232C5100F3
:1046E000232EF100930560001306000013058101DD
:1046F000EFD00F95130C1C0013048400130B8B00D8
:10470000630ABC11032504008323810133CDA30078
:10471000832C44008328C10133C898012320AB01B6
:1047200023220B01032E040003264400232CC10185
:10473000232EC100930560001306000013058101BC
:10474000EFD00F90832E8400032A8101334FDA01CA
:10475000832FC4000327C101B345F7012324EB01D4
:104760002326BB00832684000323C400232CD1000E
:10477000232E6100930560001306000013058101DC
:10478000EFD00F8C832204018327810133C55700AA
:1047900083234401032DC101B34C7D002328AB00CA
:1047A000232A9B018328040103284401232C11019F
:1047B000232E0101930560001306000013058101FB
:1047C000EFD00F88032E840103268101B34EC6016A
:1047D000032AC401032FC101B34F4F01232CDB0176
:1047E000232EFB01032784018325C401232CE10030
:1047F000232EB1009305600013060000130581010C
:10480000EFD00F84130C4C0013040402130B0B02A3
:10481000E31ABCEF638C0B1A83238101032DC101C2
:10482000930C000433887C4193983400138E88FFE6
:10483000B38EC901130608FE634A0614B354CD00B3
:104840009309000083AD0E00B3C09D0003AC4E0081
:1048500033443C01032BC100B306CB0123A0160057
:1048600023A286001303F003B30B734193021000DD
:10487000B397720113D5F741930C08FE63C80C126D
:10488000339F900113080000B3EF07013367E50180
:10489000B3C77F003345A701232CF100232EA100CD
:1048A000032D09008324490083230102B3C5A3011A
:1048B00083294102B3CD99002320B1022322B10301
:1048C00083208900032C810233441C00032BC90080
:1048D0008326C10233C36601232481022326610299
:1048E0009305C0001306000013058101EFC05FF5BA
:1048F000832B0103B3C2AB018327410333C5970068
:1049000023A05A0023A2AA00832C890083288103B4
:1049100033CE98010329C900832EC10333C62E016B
:1049200023A4CA0123A6CA008320C1070324810748
:1049300083244107032901078329C106032A81062D
:10494000832A4106032B0106832BC105032C810515
:10495000832C4105032D0105832DC104130101089A
:104960006780000083A8020013DC18001308F00120
:10497000B30C6840335D9C0183AD4200339E6D00F3
:10498000B36ECD01339F68006FF09F9C131A1D001A
:10499000130FF001B30F0F413317FA01B3D5030121
:1049A000B364B700B3590D016FF0DFE993D810007D
:1049B000130EF001B30E0E4133D6D801331A0401A1
:1049C000336F4601339800016FF01FEC939434006D
:1049D000938B84FFB3897901832DC100B3807D015E
:1049E00003AC090003248101334B840183A64900F1
:1049F0000323C101B342D30023A0600123A25000CE
:104A000083A7090003A549006FF01FE91300000008
:104A1000130101F8232E1106232C8106232A910667
:104A20002328210723263107232441072322510766
:104A300023206107232E7105232C8105232A91054C
:104A40002328A1052326B105930905001389050034
:104A500013840600930A070023240101138B080026
:104A6000137AF70713F7F7079384FA0793D47400C0
:104A70009386F7072326D10093DB760063060A06A8
:104A800093F00A046394004A939C440093838CFF40
:104A9000330E75003308950113050004B308454132
:104AA000938508FE63C00546032D0E00331CBD0030
:104AB000930C00001303F003B303434113051000EC
:104AC000B318750013DDF841B3E51C012328B8FEC7
:104AD000B36DAC01232AB8FF13080000930E000049
:104AE00023200E012322DE016306070693F7070445
:104AF00063980756139C4B00930F8CFFB300F4018F
:104B0000330F840193070004338EE74093060EFEB3
:104B100063C4065283A20000B39DD20013080000B4
:104B2000930EF003338CEE4013071000B31F870180
:104B300093D7FF41336EF8012328CFFFB3E6FD0082
:104B4000232ADFFE130F00009302000023A0E001E0
:104B500023A2500093000000B71C808013838CC0F8
:104B6000232C1100232E6100832D0900032D490001
:104B70002320B1032322A103832C8900032CC90025
:104B800023249103232681038323060083284600E0
:104B900023287102232A1103032586000326C60059
:104BA000232CA102232EC1029305C000130600008E
:104BB00013058101EFC0DFC88325010333C8B501A8
:104BC000832E410333C7AE0123280103232AE102C8
:104BD000832F810333CE9F018327C103B3C687018F
:104BE000232CC103232ED102130FF0078322C1000F
:104BF000637A5F169380FBFF93FD1000032304008C
:104C0000032D8101B34C6D00032C44008323C101AB
:104C1000B3C88301232C9101232E110103258400A5
:104C200003260102B345A6000328C400832E4102D7
:104C300033C70E012320B1022322E1029305800035
:104C40001306000013058101EFC09FBF130C100075
:104C50001304040163787C1163800D06832F040024
:104C6000032E8101334FFE01832644008327C101B7
:104C7000B3C2D700232CE101232E510083208400EE
:104C8000832D010233C31D00032DC400832C410278
:104C9000B3C3AC012320610223227102930580007B
:104CA0001306000013058101EFC09FB9130C1C000F
:104CB0001304040163787C0B83280400032581011D
:104CC00033461501832544000328C101B34EB800C3
:104CD000232CC100232ED101832F8400032701023E
:104CE000334EF701032FC40083264102B3C7E60108
:104CF0002320C1032322F102930580001306000044
:104D000013058101EFC0DFB383220401832D8101EC
:104D100033C35D00032D4401832CC101B3C3AC0137
:104D2000232C6100232E71008328840103250102B6
:104D3000334615018325C40103284102B34EB80050
:104D40002320C1022322D103930580001306000013
:104D500013058101EFC0DFAE130C2C001304040215
:104D6000E36C7CF5832B810393C01B00232C110281
:104D7000938FF4FF130C10006386840F938B09004C
:104D800003248100938D0F00130C000013F71F0004
:104D90006318075A83A50B0003288101B34EB8009E
:104DA00083A04B00832FC10133CE1F00232CD101E0
:104DB000232EC10103AF8B0003270102B342E70199
:104DC00083A6CB008327410233C3D700232051029F
:104DD000232261022320D4012322C401232454006E
:104DE000232664009305800013060000130581014B
:104DF000EFC01FA503AD0B01832C8101B3C3AC0130
:104E000083A84B010325C10133461501232C7100F2
:104E1000232EC10083A58B0103280102B34EB800E5
:104E200083AFCB01032E4102334FFE012320D10378
:104E30002322E10323287400232AC400232CD40155
:104E4000232EE40193058000130600001305810161
:104E5000EFC01F9F130C2C00938B0B021304040252
:104E6000E31ABCF393944400938D04FF338CB9018F
:104E7000832B0C0003248101B3C08B0003274C005B
:104E80008322C101334D5700232C1100232EA10191
:104E900093878D00B389F90003A3090083260102DB
:104EA000B34CD30083A3490083284102B3C5130147
:104EB000232091032322B10263040A3A13F60A0461
:104EC000631A062C832E8100B382FE0013070004B0
:104ED000B3074741938907FE63CA092833533D014D
:104EE00023A0620023A20200032581003306B5013E
:104EF000930D0000130800002320B60123220601B1
:104F00006F00C037832D0E0093DE1D00130FF001DC
:104F1000B30F1F41B3D6FE0183204E00B3921001A0
:104F200033EC5600B39C1D016FF0DFB89392440040
:104F3000938302FF3303750013050008330C4541CA
:104F400093858300B38CB900130E0AFC13080AFA88
:104F50006348080683A84C00B3D2080193030000FD
:104F600013050CFE6342050883250300B39FA500CB
:104F700093060000B3E0D20023201300B3E2F30154
:104F80002322530013030CFE6344030803AC0C00FC
:104F9000B31D6C00930E0000130FF007B30F4F41C9
:104FA00093061000B390F60193D2F04133E31E0054
:104FB00023A06C0033EC5D0023A28C016FF0DFB204
:104FC00003AD4C00931D1D00930EF001338FCE41B5
:104FD000B39FED0183A60C00B3D0C601B3E21F005E
:104FE000B353CD016FF0DFF7032E030013581E00FB
:104FF0009308F001338D8841B35DA801832E4300EF
:10500000339F8E01B3EFED01B3168E016FF09FF663
:1050100083A30C0013D513009305F001338E854153
:105020003358C50183A84C00339D8801B36DA80196
:10503000B39E83016FF05FF683AC000013D31C00B6
:105040009303F001B388C3413355130103AD40000E
:10505000B315CD01B36DB5003398CC016FF05FACE3
:10506000139E4B00130F0EFFB30FE40193060008CD
:10507000B380E64093028F00330C5400930C07FC7E
:10508000130307FA6348030683234C00B3D7630076
:10509000130F0000138E00FE63420E0883A60F005C
:1050A000B395C601930D000033E8B70123A00F01AB
:1050B000B36EBF0023A2DF01938F00FE63C40F080D
:1050C00083200C00B393F001930800001305F00750
:1050D000330DE54013071000B315A70193DDF5412B
:1050E00033E8B80023200C01B3EEB3012322DC0126
:1050F0006FF05FA683284C0013951800130DF00184
:10510000B3059D41B31DB50003280C00B35E9801A3
:10511000B3E7DD0133DF98016FF0DFF783A20F0003
:1051200093DC12001303F001B3031340B3D87C00E7
:1051300003A54F00331D1500B3E5A801B39D120070
:105140006FF09FF683270C0013DF1700130EF0019A
:10515000B3061E40B352DF00832C4C0033931C0077
:10516000B3E36200B39817006FF05FF693161D006B
:105170009303F001B388F340339A1601B3DCF000D7
:10518000B3EA4C0123A05201B355FD0023A2B200A3
:105190006FF09FD513080008B30E4841832F81009C
:1051A000338EFF00130F0AFC93040AFA63C604044B
:1051B000B39790009309000013830EFE634E03041F
:1051C000B3DA65009305000033E559012320AE00F2
:1051D00033E6B7002322CE0003288100B30DB801C7
:1051E000938F0EFE63CA0F04B350FD0123A01D0070
:1051F00023A20D006F00800813DC1000930BF00158
:105200003384EB4133578C00B312ED01B367570081
:10521000B399E0016FF05FFA939615009303F001E4
:10522000B388D341339A1601B3DCDC01B36A9A0127
:10523000B3D5D5016FF05FF9131E1D00130FF001F8
:10524000B304DF41331C9E00B3DBD00133E48B0198
:1052500023A08D00335DDD0123A2AD016F000002AC
:10526000032A8100B30ABA0123A01A0023A2AA01CB
:105270003305FA00232095012322B5008324090079
:10528000032C4900832F8102B3C09F00032EC1026B
:10529000334F8E01232411022326E103832B89003F
:1052A00003240103334D7401832EC900832241037B
:1052B00033C7D2012328A103232AE1029305C000AA
:1052C0001306000013058101EFC08FD78327010368
:1052D000B3C9970003234103B346830123203B0155
:1052E0002322DB00832389008328810333CA7800CB
:1052F0000329C900832CC103B3CA2C0123244B0109
:1053000023265B018320C1070324810783244107EF
:10531000032901078329C106032A8106832A41063E
:10532000032B0106832BC105032C8105832C41052A
:10533000032D0105832DC1041301010867800000BE
:1053400003AE0900032F8101B342CF0183A74900B7
:105350008326C10133C3F600232C5100232E6100A4
:1053600003AD8900832C0102B3C3AC0183A8C9003B
:105370000325410233461501232071022322C10275
:105380002320540023226400232474002326C40015
:10539000930580001306000013058101EFC04FCA7A
:1053A000130C1C00938B090113040401E314BC9F2C
:1053B0006FF05FAB1300000013000000130000004B
:1053C000130101F8232E1106232C8106232A9106AE
:1053D00023282107232631072324410723225107AD
:1053E00023206107232E7105232C8105232A910593
:1053F0002328A1052326B1052324A1001389050034
:1054000013840600930A07002326010193890800EC
:10541000137BF70713F7F7079384FA0793D4740005
:10542000938BF70713DA7B006306070693F70704ED
:1054300063980746131C4A0013038CFFB38366006E
:10544000B380860193070004B382E740938602FE8F
:1054500063C4064203A50300B31ED500130F00006A
:10546000930FF003338CEF401307100033138701C1
:105470009357F341B3626F0023A850FEB3E6FE00DA
:1054800023AAD0FE930000001305000023A0130000
:1054900023A2A30093030000B7158080138885C062
:1054A000232C7100232E0101832D0900032D4900B7
:1054B0002320B1032322A103832C8900032CC900DC
:1054C000232491032326810383280600032E46000C
:1054D00023281103232AC103832E86000326C60036
:1054E000232CD103232EC1029305C0001306000014
:1054F00013058101EFC0CFB4032F0103B34FBF01E8
:10550000032741033343A7012328F103232A610220
:1055100083278103B3C297018326C10333C5860164
:10552000232C5102232EA1029303F00763FA731771
:10553000930BFAFF93FD1B00832004008325810158
:1055400033C81500032D4400832CC10133CCAC01BA
:10555000232C0101232E810183288400032E0102C4
:10556000B34E1E010326C400032F4102B34FCF00E8
:105570002320D1032322F1039305800013060000AA
:1055800013058101EFC0CFAB930B1000130404018E
:1055900063F84B1163800D06032304000327810188
:1055A000B3426700832644008327C10133C5D70077
:1055B000232C5100232EA10083238400832D01027C
:1055C000B3C07D008325C40003284102334DB800D9
:1055D000232011022322A10393058000130600005B
:1055E00013058101EFC0CFA5938B1B0013040401A9
:1055F00063F84B0B832C0400032C8101B3489C01FE
:10560000032E4400832EC10133C6CE01232C110189
:10561000232EC100032F8400832F010233C3EF0127
:105620000327C40083224102B3C6E20023206102A3
:105630002322D10293058000130600001305810187
:10564000EFC00FA08327040103258101B343F500B8
:10565000832D44018325C10133C8B501232C71007A
:10566000232E0101032D8401832C010233CCAC01D4
:105670008328C401032E4102B34E1E01232081035F
:105680002322D10393058000130600001305810136
:10569000EFC00F9B938B2B0013040402E3EC4BF53C
:1056A000032A810393401A00232C1102938BF4FFE9
:1056B00013041000638684100324C100032A8100B0
:1056C000938D0B00130C000013F61B006314066689
:1056D00083200400832B810133C61B00032F440069
:1056E000832FC10133C3EF012320CA0023226A00A4
:1056F0008322840003270102334557008326C40018
:1057000083274102B3C3D7002324AA0023267A00AB
:105710008325040003284400232CB100232E01011B
:10572000032D8400832CC4002320A1032322910392
:10573000930580001306000013058101EFC04F9010
:1057400083280401032E8101B34E1E01832B4401E3
:105750000326C101334F76012328DA01232AEA0107
:10576000832F840103230102B342F3010327C40101
:1057700003254102B346E500232C5A00232EDA000C
:105780008323040183274401232C7100232EF1007D
:10579000832584010328C4012320B10223220103AD
:1057A000930580001306000013058101EFC04F89A7
:1057B000130C2C0013040402130A0A02E31ABCF1AE
:1057C00063060B4213F80A0463160822032E8101B4
:1057D000832BC10193070004338C6741139D440060
:1057E00093088DFF832F8100B38A1F01832DC10091
:1057F00033861D0113030CFE634A031A33D86B0072
:1058000093060000032F0600B3400F010324460057
:10581000B34ED40023A01A0023A2DA01832C810006
:10582000B384AC01930500009307000023A8B4FEE5
:1058300023AAF4FE130D0CFE634A0D1803AC0A00F4
:10584000B313AC01130700001305F003330B6541DC
:10585000130A100033186A019356F841336F070199
:10586000B3E0D300334ECF01232CC101B3CB700181
:10587000232E71016F00C03F83A5030013D81500CC
:105880009308F001B38C5840335D980103AE430098
:10589000B31D5E00B36EBD01339F55006FF05FBC5A
:1058A00093104A00938200FF33835600930600084A
:1058B000B383E64013858200330CA400930807FCF1
:1058C000930507FA63C8050603284C00B357B800D0
:1058D00093000000938203FE63C202088326030044
:1058E000B39D5600930E000033EFD7012320E30150
:1058F000B3EFB0012322F301138303FE63440308D3
:1059000083230C0033986300930C0000130DF00701
:10591000330EED4013071000B31DC70193DEFD41A8
:1059200033EFBC012320EC01B36FD8012322FC012B
:105930006FF05FB6832C4C00139D1C00130EF0011A
:10594000B30D1E41B31EBD01032F0C00B35F1F0139
:10595000B3E7FE01B3D01C016FF0DFF703250300AE
:10596000935815009305F00133887540B3DC0801A6
:10597000032D4300331E7D00B3EDCC01B31E750033
:105980006FF09FF683270C0093D017009302F0016D
:10599000B386724033D5D00083284C00B39578008D
:1059A0003368B500B39C77006FF05FF693921B00ED
:1059B0001305F00133078541B393E200335A8E019A
:1059C00033E84301B3D68B016FF0DFE383A80A000D
:1059D00093DF1800930DF00133868D4133D3CF0050
:1059E00083AA4A00B3928A01B363530033978801B4
:1059F0006FF09FE5832A8101832DC101130C0008FC
:105A000033046C4193944400138A04FF8320810083
:105A1000338D4001832CC100B3884C01130E04FE6A
:105A200063460E1033D3CD019302000003A7080094
:105A30003345670083A34800B3C653002320AD005D
:105A40002322DD00130C0BFC832401028325410279
:105A500093078A0013080BFA634A080EB39B0A01E6
:105A6000930E0000130F04FE63420F1033D5E501BF
:105A70009303000033E8AE0033EA7B008326C100C5
:105A8000B380F60083AC0000B3C80C0103AE400045
:105A9000B34B4E0123201D0123227D01032D8100E4
:105AA000B307FD0083AE070003AF4700930F04FE6A
:105AB00063CE0F0CB393F801130A000013080CFE19
:105AC0006346080EB35B0F01130C0000336D7A01BF
:105AD000B3EF8301B34A5D01232C5101B3CDBF0164
